{
  "contractName": "Mandiv",
  "abi": [
    {
      "constant": true,
      "inputs": [
        {
          "name": "",
          "type": "address"
        }
      ],
      "name": "motoristas",
      "outputs": [
        {
          "name": "avaliacao",
          "type": "uint256"
        },
        {
          "name": "timestamp",
          "type": "uint256"
        },
        {
          "name": "ativo",
          "type": "bool"
        }
      ],
      "payable": false,
      "stateMutability": "view",
      "type": "function"
    },
    {
      "constant": true,
      "inputs": [
        {
          "name": "",
          "type": "address"
        }
      ],
      "name": "usuarios",
      "outputs": [
        {
          "name": "nome",
          "type": "string"
        },
        {
          "name": "username",
          "type": "string"
        },
        {
          "name": "motorista",
          "type": "bool"
        },
        {
          "name": "avaliacao",
          "type": "uint256"
        },
        {
          "name": "endereco",
          "type": "string"
        },
        {
          "name": "ativo",
          "type": "bool"
        }
      ],
      "payable": false,
      "stateMutability": "view",
      "type": "function"
    },
    {
      "constant": false,
      "inputs": [
        {
          "name": "_nome",
          "type": "string"
        },
        {
          "name": "_username",
          "type": "string"
        },
        {
          "name": "_motorista",
          "type": "bool"
        }
      ],
      "name": "cadastrar",
      "outputs": [],
      "payable": false,
      "stateMutability": "nonpayable",
      "type": "function"
    },
    {
      "constant": false,
      "inputs": [],
      "name": "deletarConta",
      "outputs": [],
      "payable": false,
      "stateMutability": "nonpayable",
      "type": "function"
    },
    {
      "constant": false,
      "inputs": [
        {
          "name": "_username",
          "type": "string"
        },
        {
          "name": "_endereco",
          "type": "string"
        }
      ],
      "name": "atualizaDados",
      "outputs": [],
      "payable": false,
      "stateMutability": "nonpayable",
      "type": "function"
    },
    {
      "constant": true,
      "inputs": [
        {
          "name": "a",
          "type": "string"
        },
        {
          "name": "b",
          "type": "string"
        }
      ],
      "name": "compareStrings",
      "outputs": [
        {
          "name": "",
          "type": "bool"
        }
      ],
      "payable": false,
      "stateMutability": "view",
      "type": "function"
    },
    {
      "constant": true,
      "inputs": [],
      "name": "getSender",
      "outputs": [
        {
          "name": "",
          "type": "address"
        }
      ],
      "payable": false,
      "stateMutability": "view",
      "type": "function"
    }
  ],
  "bytecode": "0x608060405234801561001057600080fd5b50610cfe806100206000396000f300608060405260043610610083576000357c0100000000000000000000000000000000000000000000000000000000900463ffffffff1680632a69d951146100885780635e01eb5a146100f157806379d370621461014857806382b6692814610203578063bed34bba146102b2578063f6b91ea914610379578063f93b74da1461052a575b600080fd5b34801561009457600080fd5b506100c9600480360381019080803573ffffffffffffffffffffffffffffffffffffffff169060200190929190505050610541565b6040518084815260200183815260200182151515158152602001935050505060405180910390f35b3480156100fd57600080fd5b50610106610578565b604051808273ffffffffffffffffffffffffffffffffffffffff1673ffffffffffffffffffffffffffffffffffffffff16815260200191505060405180910390f35b34801561015457600080fd5b50610201600480360381019080803590602001908201803590602001908080601f0160208091040260200160405190810160405280939291908181526020018383808284378201915050505050509192919290803590602001908201803590602001908080601f0160208091040260200160405190810160405280939291908181526020018383808284378201915050505050509192919290803515159060200190929190505050610580565b005b34801561020f57600080fd5b506102b0600480360381019080803590602001908201803590602001908080601f0160208091040260200160405190810160405280939291908181526020018383808284378201915050505050509192919290803590602001908201803590602001908080601f01602080910402602001604051908101604052809392919081815260200183838082843782019150505050505091929192905050506107aa565b005b3480156102be57600080fd5b5061035f600480360381019080803590602001908201803590602001908080601f0160208091040260200160405190810160405280939291908181526020018383808284378201915050505050509192919290803590602001908201803590602001908080601f016020809104026020016040519081016040528093929190818152602001838380828437820191505050505050919291929050505061085a565b604051808215151515815260200191505060405180910390f35b34801561038557600080fd5b506103ba600480360381019080803573ffffffffffffffffffffffffffffffffffffffff169060200190929190505050610933565b60405180806020018060200187151515158152602001868152602001806020018515151515815260200184810384528a818151815260200191508051906020019080838360005b8381101561041c578082015181840152602081019050610401565b50505050905090810190601f1680156104495780820380516001836020036101000a031916815260200191505b50848103835289818151815260200191508051906020019080838360005b83811015610482578082015181840152602081019050610467565b50505050905090810190601f1680156104af5780820380516001836020036101000a031916815260200191505b50848103825286818151815260200191508051906020019080838360005b838110156104e85780820151818401526020810190506104cd565b50505050905090810190601f1680156105155780820380516001836020036101000a031916815260200191505b50995050505050505050505060405180910390f35b34801561053657600080fd5b5061053f610b51565b005b60016020528060005260406000206000915090508060000154908060010154908060020160009054906101000a900460ff16905083565b600033905090565b600015156000803373ffffffffffffffffffffffffffffffffffffffff1673ffffffffffffffffffffffffffffffffffffffff16815260200190815260200160002060050160009054906101000a900460ff1615151415156105e157600080fd5b801561067f576060604051908101604052806103e8815260200142815260200160011515815250600160003373ffffffffffffffffffffffffffffffffffffffff1673ffffffffffffffffffffffffffffffffffffffff168152602001908152602001600020600082015181600001556020820151816001015560408201518160020160006101000a81548160ff0219169083151502179055509050505b60c06040519081016040528084815260200183815260200182151581526020016064815260200160206040519081016040528060008152508152602001600115158152506000803373ffffffffffffffffffffffffffffffffffffffff1673ffffffffffffffffffffffffffffffffffffffff168152602001908152602001600020600082015181600001908051906020019061071d929190610bad565b50602082015181600101908051906020019061073a929190610bad565b5060408201518160020160006101000a81548160ff021916908315150217905550606082015181600301556080820151816004019080519060200190610781929190610bad565b5060a08201518160050160006101000a81548160ff021916908315150217905550905050505050565b816000803373ffffffffffffffffffffffffffffffffffffffff1673ffffffffffffffffffffffffffffffffffffffff16815260200190815260200160002060010190805190602001906107ff929190610c2d565b50806000803373ffffffffffffffffffffffffffffffffffffffff1673ffffffffffffffffffffffffffffffffffffffff1681526020019081526020016000206004019080519060200190610855929190610c2d565b505050565b6000816040518082805190602001908083835b602083101515610892578051825260208201915060208101905060208303925061086d565b6001836020036101000a038019825116818451168082178552505050505050905001915050604051809103902060001916836040518082805190602001908083835b6020831015156108f957805182526020820191506020810190506020830392506108d4565b6001836020036101000a03801982511681845116808217855250505050505090500191505060405180910390206000191614905092915050565b6000602052806000526040600020600091509050806000018054600181600116156101000203166002900480601f0160208091040260200160405190810160405280929190818152602001828054600181600116156101000203166002900480156109df5780601f106109b4576101008083540402835291602001916109df565b820191906000526020600020905b8154815290600101906020018083116109c257829003601f168201915b505050505090806001018054600181600116156101000203166002900480601f016020809104026020016040519081016040528092919081815260200182805460018160011615610100020316600290048015610a7d5780601f10610a5257610100808354040283529160200191610a7d565b820191906000526020600020905b815481529060010190602001808311610a6057829003601f168201915b5050505050908060020160009054906101000a900460ff1690806003015490806004018054600181600116156101000203166002900480601f016020809104026020016040519081016040528092919081815260200182805460018160011615610100020316600290048015610b345780601f10610b0957610100808354040283529160200191610b34565b820191906000526020600020905b815481529060010190602001808311610b1757829003601f168201915b5050505050908060050160009054906101000a900460ff16905086565b60008060003373ffffffffffffffffffffffffffffffffffffffff1673ffffffffffffffffffffffffffffffffffffffff16815260200190815260200160002060050160006101000a81548160ff021916908315150217905550565b828054600181600116156101000203166002900490600052602060002090601f016020900481019282601f10610bee57805160ff1916838001178555610c1c565b82800160010185558215610c1c579182015b82811115610c1b578251825591602001919060010190610c00565b5b509050610c299190610cad565b5090565b828054600181600116156101000203166002900490600052602060002090601f016020900481019282601f10610c6e57805160ff1916838001178555610c9c565b82800160010185558215610c9c579182015b82811115610c9b578251825591602001919060010190610c80565b5b509050610ca99190610cad565b5090565b610ccf91905b80821115610ccb576000816000905550600101610cb3565b5090565b905600a165627a7a72305820863960ee6ef31c66b3a0eff6d5695861e4f66ae2c360425b1e7c4c24617681f00029",
  "source": "pragma solidity ^0.4.17;\r\n\r\ncontract Mandiv{\r\n\r\n  //structs\r\n  struct Usuario{\r\n    string nome;\r\n    string username;\r\n    bool motorista;\r\n    uint avaliacao;\r\n    string endereco;\r\n    bool ativo;\r\n  }\r\n\r\n  struct Motorista{\r\n    uint avaliacao;\r\n    uint timestamp;\r\n    bool ativo;\r\n  }\r\n\r\n  //variaveis\r\n  mapping(address=>Usuario) public usuarios;\r\n  mapping(address=>Motorista) public motoristas;\r\n  //eventos\r\n\r\n\r\n  //funcoes\r\n  function cadastrar(string _nome, string _username, bool _motorista) public {\r\n    require(usuarios[msg.sender].ativo == false);\r\n    if(_motorista){\r\n      motoristas[msg.sender] = Motorista(1000,now,true);\r\n    }\r\n    usuarios[msg.sender] = Usuario(_nome,_username,_motorista,100,\"\",true);\r\n  }\r\n\r\n  function deletarConta() public {\r\n    usuarios[msg.sender].ativo = false;\r\n  }\r\n\r\n  function atualizaDados(string _username, string _endereco) public {\r\n    usuarios[msg.sender].username = _username;\r\n    usuarios[msg.sender].endereco = _endereco;\r\n  }\r\n\r\n  //function virarMotorista\r\n\r\n\r\n  function compareStrings (string a, string b) view returns (bool) {\r\n       return keccak256(a) == keccak256(b);\r\n   }\r\n\r\n   function getSender() public constant returns(address) {\r\n    return msg.sender;\r\n   }\r\n}\r\n",
  "sourcePath": "C:\\Users\\tadeu\\mandiv\\contracts\\Mandiv.sol",
  "compiler": {
    "name": "solc",
    "version": "0.4.23+commit.124ca40d.Emscripten.clang"
  },
  "schemaVersion": "2.0.0",
  "updatedAt": "2018-05-14T17:47:03.300Z"
}