{
  "contractName": "Mandiv",
  "abi": [
    {
      "constant": true,
      "inputs": [
        {
          "name": "",
          "type": "address"
        }
      ],
      "name": "motoristas",
      "outputs": [
        {
          "name": "sender",
          "type": "address"
        },
        {
          "name": "avaliacao",
          "type": "uint256"
        },
        {
          "name": "ativo",
          "type": "bool"
        }
      ],
      "payable": false,
      "stateMutability": "view",
      "type": "function"
    },
    {
      "constant": true,
      "inputs": [
        {
          "name": "",
          "type": "address"
        }
      ],
      "name": "usuarios",
      "outputs": [
        {
          "name": "nome",
          "type": "string"
        },
        {
          "name": "username",
          "type": "string"
        },
        {
          "name": "sender",
          "type": "address"
        },
        {
          "name": "motorista",
          "type": "bool"
        },
        {
          "name": "avaliacao",
          "type": "uint256"
        },
        {
          "name": "endereco",
          "type": "string"
        },
        {
          "name": "ativo",
          "type": "bool"
        }
      ],
      "payable": false,
      "stateMutability": "view",
      "type": "function"
    },
    {
      "constant": false,
      "inputs": [
        {
          "name": "_nome",
          "type": "string"
        },
        {
          "name": "_username",
          "type": "string"
        },
        {
          "name": "_motorista",
          "type": "bool"
        }
      ],
      "name": "cadastrar",
      "outputs": [],
      "payable": false,
      "stateMutability": "nonpayable",
      "type": "function"
    },
    {
      "constant": false,
      "inputs": [],
      "name": "deletarConta",
      "outputs": [],
      "payable": false,
      "stateMutability": "nonpayable",
      "type": "function"
    },
    {
      "constant": false,
      "inputs": [
        {
          "name": "_username",
          "type": "string"
        },
        {
          "name": "_endereco",
          "type": "string"
        }
      ],
      "name": "atualizaDados",
      "outputs": [],
      "payable": false,
      "stateMutability": "nonpayable",
      "type": "function"
    },
    {
      "constant": true,
      "inputs": [
        {
          "name": "a",
          "type": "string"
        },
        {
          "name": "b",
          "type": "string"
        }
      ],
      "name": "compareStrings",
      "outputs": [
        {
          "name": "",
          "type": "bool"
        }
      ],
      "payable": false,
      "stateMutability": "view",
      "type": "function"
    },
    {
      "constant": true,
      "inputs": [],
      "name": "getSender",
      "outputs": [
        {
          "name": "",
          "type": "address"
        }
      ],
      "payable": false,
      "stateMutability": "view",
      "type": "function"
    },
    {
      "constant": false,
      "inputs": [
        {
          "name": "_motorista",
          "type": "address"
        }
      ],
      "name": "enviarConvite",
      "outputs": [],
      "payable": false,
      "stateMutability": "nonpayable",
      "type": "function"
    }
  ],
  "bytecode": "0x608060405234801561001057600080fd5b50610fb5806100206000396000f30060806040526004361061008e576000357c0100000000000000000000000000000000000000000000000000000000900463ffffffff1680632a69d951146100935780635e01eb5a146101285780636c107ba91461017f57806379d37062146101c257806382b669281461027d578063bed34bba1461032c578063f6b91ea9146103f3578063f93b74da146105d7575b600080fd5b34801561009f57600080fd5b506100d4600480360381019080803573ffffffffffffffffffffffffffffffffffffffff1690602001909291905050506105ee565b604051808473ffffffffffffffffffffffffffffffffffffffff1673ffffffffffffffffffffffffffffffffffffffff16815260200183815260200182151515158152602001935050505060405180910390f35b34801561013457600080fd5b5061013d610645565b604051808273ffffffffffffffffffffffffffffffffffffffff1673ffffffffffffffffffffffffffffffffffffffff16815260200191505060405180910390f35b34801561018b57600080fd5b506101c0600480360381019080803573ffffffffffffffffffffffffffffffffffffffff16906020019092919050505061064d565b005b3480156101ce57600080fd5b5061027b600480360381019080803590602001908201803590602001908080601f0160208091040260200160405190810160405280939291908181526020018383808284378201915050505050509192919290803590602001908201803590602001908080601f01602080910402602001604051908101604052809392919081815260200183838082843782019150505050505091929192908035151590602001909291905050506106ab565b005b34801561028957600080fd5b5061032a600480360381019080803590602001908201803590602001908080601f0160208091040260200160405190810160405280939291908181526020018383808284378201915050505050509192919290803590602001908201803590602001908080601f016020809104026020016040519081016040528093929190818152602001838380828437820191505050505050919291929050505061098b565b005b34801561033857600080fd5b506103d9600480360381019080803590602001908201803590602001908080601f0160208091040260200160405190810160405280939291908181526020018383808284378201915050505050509192919290803590602001908201803590602001908080601f0160208091040260200160405190810160405280939291908181526020018383808284378201915050505050509192919290505050610a3b565b604051808215151515815260200191505060405180910390f35b3480156103ff57600080fd5b50610434600480360381019080803573ffffffffffffffffffffffffffffffffffffffff169060200190929190505050610b14565b6040518080602001806020018873ffffffffffffffffffffffffffffffffffffffff1673ffffffffffffffffffffffffffffffffffffffff16815260200187151515158152602001868152602001806020018515151515815260200184810384528b818151815260200191508051906020019080838360005b838110156104c85780820151818401526020810190506104ad565b50505050905090810190601f1680156104f55780820380516001836020036101000a031916815260200191505b5084810383528a818151815260200191508051906020019080838360005b8381101561052e578082015181840152602081019050610513565b50505050905090810190601f16801561055b5780820380516001836020036101000a031916815260200191505b50848103825286818151815260200191508051906020019080838360005b83811015610594578082015181840152602081019050610579565b50505050905090810190601f1680156105c15780820380516001836020036101000a031916815260200191505b509a505050505050505050505060405180910390f35b3480156105e357600080fd5b506105ec610d58565b005b60016020528060005260406000206000915090508060000160009054906101000a900473ffffffffffffffffffffffffffffffffffffffff16908060010154908060020160009054906101000a900460ff16905083565b600033905090565b600160008273ffffffffffffffffffffffffffffffffffffffff1673ffffffffffffffffffffffffffffffffffffffff16815260200190815260200160002060020160009054906101000a900460ff1615156106a857600080fd5b50565b600015156000803373ffffffffffffffffffffffffffffffffffffffff1673ffffffffffffffffffffffffffffffffffffffff16815260200190815260200160002060050160009054906101000a900460ff16151514151561070c57600080fd5b80156107fd576060604051908101604052803373ffffffffffffffffffffffffffffffffffffffff1681526020016103e8815260200160011515815250600160003373ffffffffffffffffffffffffffffffffffffffff1673ffffffffffffffffffffffffffffffffffffffff16815260200190815260200160002060008201518160000160006101000a81548173ffffffffffffffffffffffffffffffffffffffff021916908373ffffffffffffffffffffffffffffffffffffffff1602179055506020820151816001015560408201518160020160006101000a81548160ff0219169083151502179055509050505b60e0604051908101604052808481526020018381526020013373ffffffffffffffffffffffffffffffffffffffff16815260200182151581526020016064815260200160206040519081016040528060008152508152602001600115158152506000803373ffffffffffffffffffffffffffffffffffffffff1673ffffffffffffffffffffffffffffffffffffffff16815260200190815260200160002060008201518160000190805190602001906108b7929190610e64565b5060208201518160010190805190602001906108d4929190610e64565b5060408201518160020160006101000a81548173ffffffffffffffffffffffffffffffffffffffff021916908373ffffffffffffffffffffffffffffffffffffffff16021790555060608201518160020160146101000a81548160ff0219169083151502179055506080820151816003015560a0820151816004019080519060200190610962929190610e64565b5060c08201518160050160006101000a81548160ff021916908315150217905550905050505050565b816000803373ffffffffffffffffffffffffffffffffffffffff1673ffffffffffffffffffffffffffffffffffffffff16815260200190815260200160002060010190805190602001906109e0929190610ee4565b50806000803373ffffffffffffffffffffffffffffffffffffffff1673ffffffffffffffffffffffffffffffffffffffff1681526020019081526020016000206004019080519060200190610a36929190610ee4565b505050565b6000816040518082805190602001908083835b602083101515610a735780518252602082019150602081019050602083039250610a4e565b6001836020036101000a038019825116818451168082178552505050505050905001915050604051809103902060001916836040518082805190602001908083835b602083101515610ada5780518252602082019150602081019050602083039250610ab5565b6001836020036101000a03801982511681845116808217855250505050505090500191505060405180910390206000191614905092915050565b6000602052806000526040600020600091509050806000018054600181600116156101000203166002900480601f016020809104026020016040519081016040528092919081815260200182805460018160011615610100020316600290048015610bc05780601f10610b9557610100808354040283529160200191610bc0565b820191906000526020600020905b815481529060010190602001808311610ba357829003601f168201915b505050505090806001018054600181600116156101000203166002900480601f016020809104026020016040519081016040528092919081815260200182805460018160011615610100020316600290048015610c5e5780601f10610c3357610100808354040283529160200191610c5e565b820191906000526020600020905b815481529060010190602001808311610c4157829003601f168201915b5050505050908060020160009054906101000a900473ffffffffffffffffffffffffffffffffffffffff16908060020160149054906101000a900460ff1690806003015490806004018054600181600116156101000203166002900480601f016020809104026020016040519081016040528092919081815260200182805460018160011615610100020316600290048015610d3b5780601f10610d1057610100808354040283529160200191610d3b565b820191906000526020600020905b815481529060010190602001808311610d1e57829003601f168201915b5050505050908060050160009054906101000a900460ff16905087565b60008060003373ffffffffffffffffffffffffffffffffffffffff1673ffffffffffffffffffffffffffffffffffffffff16815260200190815260200160002060050160006101000a81548160ff0219169083151502179055506000803373ffffffffffffffffffffffffffffffffffffffff1673ffffffffffffffffffffffffffffffffffffffff16815260200190815260200160002060020160149054906101000a900460ff1615610e62576000600160003373ffffffffffffffffffffffffffffffffffffffff1673ffffffffffffffffffffffffffffffffffffffff16815260200190815260200160002060020160006101000a81548160ff0219169083151502179055505b565b828054600181600116156101000203166002900490600052602060002090601f016020900481019282601f10610ea557805160ff1916838001178555610ed3565b82800160010185558215610ed3579182015b82811115610ed2578251825591602001919060010190610eb7565b5b509050610ee09190610f64565b5090565b828054600181600116156101000203166002900490600052602060002090601f016020900481019282601f10610f2557805160ff1916838001178555610f53565b82800160010185558215610f53579182015b82811115610f52578251825591602001919060010190610f37565b5b509050610f609190610f64565b5090565b610f8691905b80821115610f82576000816000905550600101610f6a565b5090565b905600a165627a7a72305820cc0b875fc81dd10b50cb0cfb60e7d56289d085f5017fd10d43c52b1f093dc6200029",
  "source": "pragma solidity ^0.4.17;\r\n\r\ncontract Mandiv{\r\n\r\n  //*****STRUCTS\r\n\r\n  struct Usuario{\r\n    string nome;\r\n    string username;\r\n    address sender;\r\n    bool motorista;\r\n    uint avaliacao;\r\n    string endereco;\r\n    bool ativo;\r\n  }\r\n\r\n  struct Motorista{\r\n    //fotos ipfs\r\n    address sender;\r\n    uint avaliacao;\r\n    bool ativo;\r\n  }\r\n\r\n  struct Endereco{\r\n    string pais;\r\n    string estado;\r\n    string cidade;\r\n    string bairro;\r\n    string rua;\r\n    uint num;\r\n    uint complemento;\r\n  }\r\n\r\n  struct Itinerario{\r\n    mapping(uint=>Endereco) pontos;\r\n    uint numPontos;\r\n    mapping(uint=>Endereco) passageiros;\r\n    uint numPassageiros;\r\n  }\r\n\r\n  struct Viagem{\r\n    Itinerario itinerario;\r\n    address motorista;\r\n    uint timestamp;\r\n  }\r\n\r\n  struct HistoricoViagem{\r\n    mapping(address=>uint) avaliacoes;\r\n    Viagem viagem;\r\n  }\r\n\r\n  struct Passageiro{\r\n    address sender;\r\n    mapping(uint=>HistoricoViagem) historico;\r\n    mapping(uint=>Convite) convites;\r\n  }\r\n\r\n  struct Convite{\r\n    address passageiro;\r\n    uint timestamp;\r\n  }\r\n\r\n  //*****VARIAVEIS DE ESTADO\r\n\r\n  mapping(address=>Usuario) public usuarios;\r\n  mapping(address=>Motorista) public motoristas;\r\n  //mapping(address=>Usuario) public passageiros;\r\n\r\n  //*****EVENTOS\r\n\r\n\r\n  //*****FUNCOES\r\n\r\n  //cadastro\r\n  function cadastrar(string _nome, string _username, bool _motorista) public {\r\n    require(usuarios[msg.sender].ativo == false);\r\n    if(_motorista){\r\n      motoristas[msg.sender] = Motorista(msg.sender,1000,true);\r\n    }\r\n    usuarios[msg.sender] = Usuario(_nome,_username,msg.sender,_motorista,100,\"\",true);\r\n  }\r\n\r\n  function deletarConta() public {\r\n    usuarios[msg.sender].ativo = false;\r\n    if(usuarios[msg.sender].motorista){\r\n      motoristas[msg.sender].ativo = false;\r\n    }\r\n  }\r\n\r\n  function atualizaDados(string _username, string _endereco) public {\r\n    usuarios[msg.sender].username = _username;\r\n    usuarios[msg.sender].endereco = _endereco;\r\n  }\r\n\r\n  //viagem\r\n\r\n\r\n  //temporarias\r\n\r\n  //utilitarios\r\n  function compareStrings (string a, string b) view returns (bool) {\r\n       return keccak256(a) == keccak256(b);\r\n   }\r\n\r\n  function getSender() public constant returns(address) {\r\n    return msg.sender;\r\n   }\r\n\r\n  function enviarConvite(address _motorista) public{\r\n    require(motoristas[_motorista].ativo);\r\n\r\n  }\r\n\r\n}\r\n",
  "sourcePath": "C:\\Users\\tadeu\\mandiv\\contracts\\Mandiv.sol",
  "compiler": {
    "name": "solc",
    "version": "0.4.23+commit.124ca40d.Emscripten.clang"
  },
  "schemaVersion": "2.0.0",
  "updatedAt": "2018-05-16T21:07:01.443Z"
}