{
  "contractName": "Mandiv",
  "abi": [
    {
      "constant": true,
      "inputs": [
        {
          "name": "",
          "type": "address"
        }
      ],
      "name": "usuarios",
      "outputs": [
        {
          "name": "nome",
          "type": "string"
        },
        {
          "name": "senha",
          "type": "string"
        },
        {
          "name": "motorista",
          "type": "bool"
        },
        {
          "name": "avaliacao",
          "type": "uint256"
        }
      ],
      "payable": false,
      "stateMutability": "view",
      "type": "function"
    },
    {
      "anonymous": false,
      "inputs": [
        {
          "indexed": false,
          "name": "nome",
          "type": "string"
        }
      ],
      "name": "loginEvent",
      "type": "event"
    },
    {
      "constant": false,
      "inputs": [
        {
          "name": "_nome",
          "type": "string"
        },
        {
          "name": "_senha",
          "type": "string"
        },
        {
          "name": "_motorista",
          "type": "bool"
        }
      ],
      "name": "cadastrar",
      "outputs": [],
      "payable": false,
      "stateMutability": "nonpayable",
      "type": "function"
    },
    {
      "constant": false,
      "inputs": [
        {
          "name": "_senha",
          "type": "string"
        }
      ],
      "name": "login",
      "outputs": [],
      "payable": false,
      "stateMutability": "nonpayable",
      "type": "function"
    },
    {
      "constant": true,
      "inputs": [
        {
          "name": "a",
          "type": "string"
        },
        {
          "name": "b",
          "type": "string"
        }
      ],
      "name": "compareStrings",
      "outputs": [
        {
          "name": "",
          "type": "bool"
        }
      ],
      "payable": false,
      "stateMutability": "view",
      "type": "function"
    }
  ],
  "bytecode": "0x608060405234801561001057600080fd5b506109ac806100206000396000f300608060405260043610610062576000357c0100000000000000000000000000000000000000000000000000000000900463ffffffff1680633a7d280c1461006757806379d37062146100d0578063bed34bba1461018b578063f6b91ea914610252575b600080fd5b34801561007357600080fd5b506100ce600480360381019080803590602001908201803590602001908080601f016020809104026020016040519081016040528093929190818152602001838380828437820191505050505050919291929050505061038c565b005b3480156100dc57600080fd5b50610189600480360381019080803590602001908201803590602001908080601f0160208091040260200160405190810160405280939291908181526020018383808284378201915050505050509192919290803590602001908201803590602001908080601f0160208091040260200160405190810160405280939291908181526020018383808284378201915050505050509192919290803515159060200190929190505050610576565b005b34801561019757600080fd5b50610238600480360381019080803590602001908201803590602001908080601f0160208091040260200160405190810160405280939291908181526020018383808284378201915050505050509192919290803590602001908201803590602001908080601f0160208091040260200160405190810160405280939291908181526020018383808284378201915050505050509192919290505050610695565b604051808215151515815260200191505060405180910390f35b34801561025e57600080fd5b50610293600480360381019080803573ffffffffffffffffffffffffffffffffffffffff16906020019092919050505061076e565b60405180806020018060200185151515158152602001848152602001838103835287818151815260200191508051906020019080838360005b838110156102e75780820151818401526020810190506102cc565b50505050905090810190601f1680156103145780820380516001836020036101000a031916815260200191505b50838103825286818151815260200191508051906020019080838360005b8381101561034d578082015181840152602081019050610332565b50505050905090810190601f16801561037a5780820380516001836020036101000a031916815260200191505b50965050505050505060405180910390f35b61046f6000803373ffffffffffffffffffffffffffffffffffffffff1673ffffffffffffffffffffffffffffffffffffffff1681526020019081526020016000206001018054600181600116156101000203166002900480601f0160208091040260200160405190810160405280929190818152602001828054600181600116156101000203166002900480156104645780601f1061043957610100808354040283529160200191610464565b820191906000526020600020905b81548152906001019060200180831161044757829003601f168201915b505050505082610695565b151561047a57600080fd5b7fd3e3bdb633ab99ce79800e41c1dbcd06d3115dd825f6dcfc7bac83cb9b350ebe6000803373ffffffffffffffffffffffffffffffffffffffff1673ffffffffffffffffffffffffffffffffffffffff16815260200190815260200160002060000160405180806020018281038252838181546001816001161561010002031660029004815260200191508054600181600116156101000203166002900480156105655780601f1061053a57610100808354040283529160200191610565565b820191906000526020600020905b81548152906001019060200180831161054857829003601f168201915b50509250505060405180910390a150565b60008060003373ffffffffffffffffffffffffffffffffffffffff1673ffffffffffffffffffffffffffffffffffffffff168152602001908152602001600020600301541415156105c657600080fd5b608060405190810160405280848152602001838152602001821515815260200160648152506000803373ffffffffffffffffffffffffffffffffffffffff1673ffffffffffffffffffffffffffffffffffffffff16815260200190815260200160002060008201518160000190805190602001906106459291906108db565b5060208201518160010190805190602001906106629291906108db565b5060408201518160020160006101000a81548160ff02191690831515021790555060608201518160030155905050505050565b6000816040518082805190602001908083835b6020831015156106cd57805182526020820191506020810190506020830392506106a8565b6001836020036101000a038019825116818451168082178552505050505050905001915050604051809103902060001916836040518082805190602001908083835b602083101515610734578051825260208201915060208101905060208303925061070f565b6001836020036101000a03801982511681845116808217855250505050505090500191505060405180910390206000191614905092915050565b6000602052806000526040600020600091509050806000018054600181600116156101000203166002900480601f01602080910402602001604051908101604052809291908181526020018280546001816001161561010002031660029004801561081a5780601f106107ef5761010080835404028352916020019161081a565b820191906000526020600020905b8154815290600101906020018083116107fd57829003601f168201915b505050505090806001018054600181600116156101000203166002900480601f0160208091040260200160405190810160405280929190818152602001828054600181600116156101000203166002900480156108b85780601f1061088d576101008083540402835291602001916108b8565b820191906000526020600020905b81548152906001019060200180831161089b57829003601f168201915b5050505050908060020160009054906101000a900460ff16908060030154905084565b828054600181600116156101000203166002900490600052602060002090601f016020900481019282601f1061091c57805160ff191683800117855561094a565b8280016001018555821561094a579182015b8281111561094957825182559160200191906001019061092e565b5b509050610957919061095b565b5090565b61097d91905b80821115610979576000816000905550600101610961565b5090565b905600a165627a7a723058200314acf200695a15d8be990c86eda07951ef6fae3e826a0e207fc1ecbc9aeea10029",
  "source": "pragma solidity ^0.4.17;\r\n\r\ncontract Mandiv{\r\n\r\n  //structs\r\n  struct Usuario{\r\n    string nome;\r\n    string senha;\r\n    bool motorista;\r\n    uint avaliacao;\r\n  }\r\n\r\n  //variaveis\r\n  mapping(address=>Usuario) public usuarios;\r\n\r\n  //eventos\r\n  event loginEvent(\r\n    string nome\r\n  );\r\n\r\n  //funcoes\r\n  function cadastrar(string _nome, string _senha, bool _motorista) public {\r\n    require(usuarios[msg.sender].avaliacao == 0);\r\n    usuarios[msg.sender] = Usuario(_nome,_senha,_motorista,100);\r\n  }\r\n\r\n  function login(string _senha) public {\r\n    require(compareStrings(usuarios[msg.sender].senha, _senha));\r\n    emit loginEvent(usuarios[msg.sender].nome);\r\n  }\r\n\r\n  function compareStrings (string a, string b) view returns (bool){\r\n       return keccak256(a) == keccak256(b);\r\n   }\r\n}\r\n",
  "sourcePath": "C:\\Users\\tadeu\\mandiv\\contracts\\Mandiv.sol",
  "compiler": {
    "name": "solc",
    "version": "0.4.23+commit.124ca40d.Emscripten.clang"
  },
  "schemaVersion": "2.0.0",
  "updatedAt": "2018-05-08T17:28:35.156Z"
}