{
  "contractName": "Mandiv",
  "abi": [
    {
      "constant": true,
      "inputs": [
        {
          "name": "",
          "type": "address"
        }
      ],
      "name": "usuarios",
      "outputs": [
        {
          "name": "nome",
          "type": "string"
        },
        {
          "name": "motorista",
          "type": "bool"
        },
        {
          "name": "avaliacao",
          "type": "uint256"
        }
      ],
      "payable": false,
      "stateMutability": "view",
      "type": "function"
    },
    {
      "constant": false,
      "inputs": [
        {
          "name": "_nome",
          "type": "string"
        },
        {
          "name": "_motorista",
          "type": "bool"
        }
      ],
      "name": "cadastrar",
      "outputs": [],
      "payable": false,
      "stateMutability": "nonpayable",
      "type": "function"
    }
  ],
  "bytecode": "0x608060405234801561001057600080fd5b5061042f806100206000396000f30060806040526004361061004c576000357c0100000000000000000000000000000000000000000000000000000000900463ffffffff16806343cc048514610051578063f6b91ea9146100c6575b600080fd5b34801561005d57600080fd5b506100c4600480360381019080803590602001908201803590602001908080601f0160208091040260200160405190810160405280939291908181526020018383808284378201915050505050509192919290803515159060200190929190505050610194565b005b3480156100d257600080fd5b50610107600480360381019080803573ffffffffffffffffffffffffffffffffffffffff16906020019092919050505061028f565b604051808060200184151515158152602001838152602001828103825285818151815260200191508051906020019080838360005b8381101561015757808201518184015260208101905061013c565b50505050905090810190601f1680156101845780820380516001836020036101000a031916815260200191505b5094505050505060405180910390f35b60008060003373ffffffffffffffffffffffffffffffffffffffff1673ffffffffffffffffffffffffffffffffffffffff168152602001908152602001600020600201541415156101e457600080fd5b606060405190810160405280838152602001821515815260200160648152506000803373ffffffffffffffffffffffffffffffffffffffff1673ffffffffffffffffffffffffffffffffffffffff168152602001908152602001600020600082015181600001908051906020019061025d92919061035e565b5060208201518160010160006101000a81548160ff021916908315150217905550604082015181600201559050505050565b6000602052806000526040600020600091509050806000018054600181600116156101000203166002900480601f01602080910402602001604051908101604052809291908181526020018280546001816001161561010002031660029004801561033b5780601f106103105761010080835404028352916020019161033b565b820191906000526020600020905b81548152906001019060200180831161031e57829003601f168201915b5050505050908060010160009054906101000a900460ff16908060020154905083565b828054600181600116156101000203166002900490600052602060002090601f016020900481019282601f1061039f57805160ff19168380011785556103cd565b828001600101855582156103cd579182015b828111156103cc5782518255916020019190600101906103b1565b5b5090506103da91906103de565b5090565b61040091905b808211156103fc5760008160009055506001016103e4565b5090565b905600a165627a7a7230582084cc0b46d05733c7702ac979785dc3aed3ae36ff145dabe1b653b4890dfed8480029",
  "source": "pragma solidity ^0.4.17;\r\n\r\ncontract Mandiv{\r\n\r\n  struct Usuario{\r\n    string nome;\r\n    bool motorista;\r\n    uint avaliacao;\r\n  }\r\n\r\n  mapping(address=>Usuario) public usuarios;\r\n\r\n  function cadastrar(string _nome,bool _motorista) public {\r\n    require(usuarios[msg.sender].avaliacao == 0);\r\n    usuarios[msg.sender] = Usuario(_nome,_motorista,100);\r\n  }\r\n}\r\n",
  "sourcePath": "C:\\Users\\tadeu\\mandiv\\contracts\\Mandiv.sol",
  "compiler": {
    "name": "solc",
    "version": "0.4.23+commit.124ca40d.Emscripten.clang"
  },
  "schemaVersion": "2.0.0",
  "updatedAt": "2018-05-08T13:44:07.114Z"
}